:020020003B00A3
:100000000000810904170E10FE1482009A1C1218B9
:160024000217C00519180017E000000902170210800B15181118AB
:020022001D18A7
:20003A0084094409C407C505C50AC407C00500170210C507E000C507C00500170310C4077D
:20005A00E000C40700121E1886098009C0074206200D3B18C3070604000933180117C705E0
:20007A00880989098A09581749060217CA06600C80161B00200C5218C907C005CA071010D0
:20009A000117E00009090A0840188B098C0958174B060217CC06600C80161B00200C8C1811
:2000BA00CB07C005CC0710109B1C001265188918CC07C005CB071B00400B0310CD050017E9
:2000DA008006CE05CD070110CF05CE071000D00558174F060217D006600C80161B00200C3E
:2000FA008918CF07C005D00710100017E000CD070F04CE07900475180B090C08541807093B
:1A011A000808C7070A11C8071100600C80161B00200C3E188009C6073A00C3
:1A01340000018011200DA018E1003A00C0093200A200FF10C009E0003A0090
:00000001FF
